:020000040800F2
:1000000088080020A5010008CF230008E52000088B
:10001000CD230008610700084D2E000800000000F5
:10002000000000000000000000000000392400086B
:10003000D907000800000000D12300083929000872
:10004000BF010008BF010008BF010008BF01000890
:10005000BF010008BF010008BF010008BF01000880
:10006000BF010008BF010008BF010008BF01000870
:10007000BF010008BF010008BF010008BF01000860
:10008000BF010008BF010008BF010008BF01000850
:10009000BF010008BF010008BF010008BF01000840
:1000A000BF010008BF010008BF010008BF01000830
:1000B000BF010008B5290008BF010008BF01000802
:1000C000BF010008BF010008BF010008BF01000810
:1000D000BF010008412E0008BF010008BF01000851
:1000E000BF010008BF010008BF01000800F002F8CE
:1000F00000F048F80AA090E8000C82448344AAF17A
:100100000107DA4501D100F03DF8AFF2090EBAE877
:100110000F0013F0010F18BFFB1A43F0010318473B
:100120008C320000AC320000103A24BF78C878C18D
:10013000FAD8520724BF30C830C144BF04680C60ED
:10014000704700000023002400250026103A28BF35
:1001500078C1FBD8520728BF30C148BF0B60704739
:10016000642900F08780002070471FB500F02AFA4C
:1001700004000020002102F051FF401C60601FBD00
:1001800010B510BD00F0F9F91146FFF7EEFF02F0CF
:100190007DFE00F029FA03B4FFF7F2FF03BC00F084
:1001A0006DFA00000948804709480047FEE7FEE76E
:1001B000FEE7FEE7FEE7FEE7FEE7FEE7FEE7FEE717
:1001C00004480549054A064B70470000B32900085A
:1001D000ED00000888020020880800208804002024
:1001E000880400200FB41CB5074B06AA7B4469465F
:1001F0000090059800F015F90020694600F024F9F8
:100200001CBC5DF814FB0000590200002DE9F04110
:100210000E460446002020622046E168884730B33D
:10022000252805D0D4E901219047206A401CF2E737
:10023000E168204600278847050018D0A5F1410055
:10024000192802D820354FF4006732462946204647
:100250002760FFF785FF40B1012804D0F61D26F086
:1002600007060836D8E7361DD6E72846DAE7206ABB
:10027000BDE8F0812DE9F04106460024106875299B
:10028000314616A510D0AFF30080002802DA4042B4
:1002900013A507E031688A0701D512A502E04907D6
:1002A00004D511A5012401E0AFF3008000210A224A
:1002B00006F1240709E0B0FBF2FCB0FBF2F302FB0D
:1002C0001C00303078541846491C0028F3D12346CE
:1002D0002A463046BDE8F04100F044B80000000076
:1002E0002D0000002B0000002000000070B5064625
:1002F00000F034F80468054630460A22002100F078
:10030000A8F82C6070BD4FF0000200B5134694466B
:100310009646203922BFA0E80C50A0E80C50B1F15D
:100320002001BFF4F7AF090728BFA0E80C5048BF71
:100330000CC05DF804EB890028BF40F8042B08BF0F
:10034000704748BF20F8022B11F0804F18BF00F80B
:10035000012B704770477047704700000048704796
:10036000280200202DE9F0470D46994692460446A2
:1003700000F124080168880604D5E06921F0100125
:10038000216000E00120A84201DD471B00E00027BA
:10039000A1697A1902EB0900081AA0612078C00649
:1003A00002D42046AFF30080002608E0D4E9012102
:1003B0001AF806009047206A401C761C20624E45C1
:1003C000F4DB2078C0060AD52046AFF3008006E0B3
:1003D000D4E9012130209047206A401C2062381E59
:1003E000A7F10107F4DC07E0D4E9012118F80500C2
:1003F0009047206A401C2062281EA5F10105F3DC0D
:100400002046AFF300802078000602D50220BDE828
:10041000F0870120FBE7000001694A1C02610878AF
:10042000704700B58FB0CDE9013100210591054934
:100430007944CDE9031011466846FFF7E7FE0FB097
:1004400000BD0000E5FFFFFF0A6802F8010B0A602B
:1004500070472DE9F04791460F4680460446002636
:1004600014F8015B2DB100F031F80068405DC00761
:10047000F6D12B2D02D02D2D18D0641E4A463946B8
:10048000204600F02BF827B13968A14201D1C7F806
:1004900000804FF0020471050BD54042002803DDB7
:1004A000FFF75CFF0460A007BDE8F08746F48066B4
:1004B000E4E70028F8DAFFF751FF04606FF000402E
:1004C000F2E70000004870472802002010B500F055
:1004D00079F8001D10BD00BF452B00002DE9F05F2D
:1004E000824615468B4600270AF10104B94600787A
:1004F000302801D09DB113E014F8010B01277828B2
:1005000003D0582801D045B10AE00DB1102D07D114
:10051000002714F8010B102502E0082500E00A2549
:100520000026B0460EE005FB080005FB06F101279A
:100530001FFA80F801EB1046B6F5803F00D3B946AC
:1005400014F8010B294600F041F80028EBDABBF162
:10055000000F05D00FB1641E00E05446CBF80040F8
:10056000B9F1000F06D0FFF7F9FE02210160C81EA5
:10057000BDE8F09F48EA0640FAE77546FFF7A2FF9C
:10058000AE4605006946534620F00700854618B080
:1005900020B5FFF715FEBDE820404FF000064FF0F4
:1005A00000074FF000084FF0000B21F00701AC46A8
:1005B000ACE8C009ACE8C009ACE8C009ACE8C009C7
:1005C0008D46704700487047480200203A2800D204
:1005D000303820F02002412A01D3A2F137008842AE
:1005E00001D34FF0FF30704710B50446AFF30080E1
:1005F0002046BDE81040FFF7CEBD00004FF0013CA3
:1006000050F8042B51F8043B9A4221D1A2EB0C0381
:10061000934313EACC1317D150F8042B51F8043B41
:100620009A4215D1A2EB0C03934313EACC130BD1DE
:1006300050F8042B51F8043B9A4209D1A2EB0C0369
:10064000934313EACC13DBD04FF00000704700BF98
:10065000D01A01BAB1FA81F101F0180122FA01F0C1
:10066000CB40C1F12001DBB2C0B2C01A2CFA01F3B9
:10067000D11A914311EAC311E6D1704701491820FC
:10068000ABBEFEE7260002007047000070B50446CE
:1006900000688168C943C90717D1816821F0010149
:1006A000816000F0BDFB05460AE000BF00F0B8FB2A
:1006B000401B022804D920688068C043C00706D0C8
:1006C00020688068C043C007F0D0002070BDA06AD9
:1006D00040F01000A062E06A40F00100E0620120FA
:1006E00070BD0000F8B500260446009600688168D9
:1006F000C943C9072DD0816841F0010181601648C6
:1007000016490068B0FBF1F000E0401E00900028A0
:10071000FBD100F085FB054616E000BF00F080FB32
:10072000401B022810D920688068C043C0070BD046
:10073000A06A40F01000A062E06A40F00100E062B0
:1007400084F824600120F8BD20688068C043C00799
:10075000E4D10020F8BD0000B400002040420F00AA
:10076000FEE7000070B51A4E2021304600F046FB2F
:10077000184CA0730A2000F03FFA2021304600F008
:100780003DFBE073A17B014321D14FF4FA7000F0EF
:1007900033FA2021304600F031FBE07304F180058C
:1007A00020B10020A072D5E900010AE00120A0726A
:1007B0002021304600F022FBE0730028F8D0D5E974
:1007C0000201C5E90401BDE8704001F037BE70BD0B
:1007D0000008014000000020704772B6FEE70000EC
:1007E000F8B50024009490F824202546012A12D060
:1007F000012280F824204A681F23072A0DD20668A8
:10080000776B521E02EB820293409F430B6893402A
:100810001F43776319E00220F8BD06680D2A0AD24B
:10082000376BD21F02EB820293409F430B689340C9
:100830001F43376309E0F76A0D3A02EB82029340E7
:100840009F430B6893401F43F7620A6807230668BB
:100850000A2A0AD3F7680A3A02EB420293409F43FE
:100860008B6893401F43F76008E0376902EB420250
:1008700093409F438B6893401F4337610A68102A57
:1008800001D0112A20D1124B02689A4217D19368E5
:100890001B0219D4936843F400039360096810297C
:1008A00012D10C490C4A0968B1FBF2F101EB81014C
:1008B000490000E0491E00910029FBD104E0816A53
:1008C00041F020018162012480F824502046F8BDC7
:1008D00000240140B400002040420F000068C06CBA
:1008E000704700002DE9F0414FF0000704003D463D
:1008F0007ED0A06A002628B9E66284F824602046EB
:1009000000F07EF82046FFF7C1FEA16AC90600D4B8
:1009100020B1A06A40F01000A06269E0A16A21F451
:10092000885141F00201A1626268E169237B0A43B8
:1009300047EA43010A43A1684FF48077B94209D0DE
:10094000012907D05FF0000194F814C0BCF1010F39
:1009500002D00AE03946F7E7F3B1A36A43F0200377
:10096000A362E36A43F00103E3622368D3F804C09F
:100970002CF4694C4CEA010CC3F804C021688B6864
:10098000DFF870C003EA0C0313438B60A168B9421F
:100990000BD0012909D00CE0DFF85CC0A3690CEB97
:1009A00043330B4343F40061DFE7218A0D05A5F5CE
:1009B00080152168CB6A23F470032B43CB62216836
:1009C00089680E4B1940914208D1E662A16A21F074
:1009D000020141F00101A162BDE8F081A06A20F0AE
:1009E000020040F01000A062E06A40F00100E06206
:1009F0000120F1E7FDF7E1FF00E0FFFFFE0E1FFF22
:100A000000B585B000210091019102910391006829
:100A10000E49884218D10E48816941F40071816104
:100A2000816901F400710491816941F004018161DF
:100A30008069694600F004000490042000900320BF
:100A40000190044800F0EAF805B000BD0024014020
:100A5000001002400008014070B5044690F82400E0
:100A600001280DD0012084F824002046FFF73AFE2B
:100A700002004FF0000005D084F82400104670BD3D
:100A8000022070BDA16A40F20123994341F48071B4
:100A9000A1621F4D23681F49AB4218D10E6816F49E
:100AA000702F14D0A66A46F48016A6620E687605EA
:100AB00005D5A66A26F4005646F48056A662A66AB4
:100AC000F6040AD5E66A26F00606E66206E0A66A9D
:100AD00026F48016A6625E68E9E7E06284F82400E6
:100AE0006FF00200186020688368C3F34243072B4D
:100AF00005D1A84208D1096811F4702F04D081688B
:100B000041F480118160B9E7816841F4A001F9E7FF
:100B1000002801400424014010B590F82110002263
:100B2000022905D00421816380F82020012010BD16
:100B300001680B6823F00E030B6001680B6823F05B
:100B400001030B6090F84030C46B012101FA03F3FC
:100B5000636080F8211080F82020104610BD00004E
:100B600010B590F821100024022903D004218163DC
:100B700001243DE001680A6822F00E020A60016863
:100B80000A6822F001020A601A4A0168914201D102
:100B9000012121E0174A1432914201D110211BE0BA
:100BA000144A2832914201D1891515E0114A3C328C
:100BB000914201D189140FE00E4A5032914202D184
:100BC0004FF4803108E00B4A6432914202D14FF475
:100BD000801101E04FF08071064A083A516001210E
:100BE00080F82110002180F82010416B01B1884766
:100BF000204610BD0800024070B5044600F010F910
:100C00000546601C02D004480078044400F008F94E
:100C1000401BA042FAD370BDA80000202DE9F84F78
:100C2000DFF8B891002409F1040A0AF1040B234605
:100C30000F270BF1040EC9E00125A5402A40AA4266
:100C40007DD1674ED1F804C0ACEB0608B44532D074
:100C500014DCBCF1030F3AD009DCBCF1000F2AD040
:100C6000BCF1010F1CD0BCF1020F31D11DE0BCF171
:100C7000110F17D0BCF1120F2AD119E0B8F5881F57
:100C800019D006DCB8F5803F15D0B8F5801F1FD10C
:100C900011E0B8F5001F0ED0B8F5041F18D10AE016
:100CA000CB6815E0CB681B1D12E0CB6808330FE062
:100CB000CB680C330CE08B682BB1012B4FF0080391
:100CC00003D0456104E0042302E0056100E0002355
:100CD000FF2A01D8064601E000F104064FEA840528
:100CE00001D9A5F12005D6F8008007FA05FC28EA0D
:100CF0000C0803FA05F548EA0508C6F800804D68B7
:100D0000ED0062D5374DAE6946F00106AE61AD69C2
:100D100024F0030605F001050095334D06EB050CA4
:100D2000DCF80850A607360F07FA06F825EA08058A
:100D3000DFF8B880404503D14FF0000817E044E0E9
:100D4000DFF8AC80404502D14FF001080FE0DFF83A
:100D5000A480404502D14FF0020808E0DFF89880F7
:100D6000404502D14FF0030801E04FF0040808FAB3
:100D700006F848EA0508CCF808804D68D9F8006004
:100D8000ED034D4601D5164300E096432E604D68B5
:100D9000DAF80060AD03554601D5164300E09643EE
:100DA0002E604D68DBF80060ED025D4601D516430C
:100DB00000E096432E604D68DEF80060AD02754697
:100DC00001D5164300E096432E60641C0D682A4648
:100DD000E5407FF431AFBDE8F88F0000000401402A
:100DE0000000111000100240000001400008014006
:100DF000000C0140001001400014014080680840D0
:100E000000D001207047C26821EA02030A4043EA89
:100E10000241016170470AB1016170470904FBE7B3
:100E20000148806870470000A800002002488168DF
:100E30000278114481607047A8000020074810B56F
:100E4000016841F010010160032000F075F80F20E7
:100E500000F006F800F024F8002010BD0020024049
:100E600070B50D4D04464FF47A712878B1FBF0F05F
:100E70000A490968B1FBF0F000F062FB48B9102C98
:100E800007D200222146501E00F036F800206C6088
:100E900070BD012070BD0000A8000020B40000203B
:100EA0000C4808B5816941F001018161816901F057
:100EB00001010091C16941F08051C161C06900F038
:100EC000805000900448416821F0E06141F00071D9
:100ED000416008BD0010024000000140002809DB0D
:100EE00000F01F02012191404009800000F1E02044
:100EF000C0F8001170470000F0B40E4B1B680C46A0
:100F0000C3F30223C3F10705042D00D90425191DDD
:100F1000072901D2002300E0DB1E012606FA05F1B5
:100F2000491E214099409E40761E16403143F0BC38
:100F300001F09CBF0CED00E0064900F007020868D4
:100F40004FF6FF03184040EA0220034A10430860AE
:100F5000704700000CED00E00000FA052DE9F843B1
:100F600005460078354CC00754D0E0690026C00023
:100F700008D4E06940F08050E061E069012600F0AB
:100F8000805000902E480168C90512D4016880463F
:100F900041F480710160FFF743FF074605E000BFA1
:100FA000FFF73EFFC01B642823D8D8F80000C00517
:100FB000F6D5206A10F4407021D0A98801F4407160
:100FC00081421CD0206A1F49012220F440700A602F
:100FD00000220A602062C00711D0FFF721FF0746F8
:100FE00041F2883808E000BFFFF71AFFC11B4145F6
:100FF00002D90320BDE8F883206A8007F4D5206A6F
:10100000696820F44070084320621EB1E06920F056
:101010008050E0612878800705D56068A96820F4D1
:101020004040084360602878C00605D56068E968DC
:1010300020F48000084360600020DBE700100240DD
:1010400000700040400442422DE9F0470F46050081
:1010500061D0434E306800F00700B84209D23068D2
:1010600020F0070038433060306800F00700B842D5
:1010700051D128683B4C810712D5400703D56068E1
:1010800040F4E06060602878000703D5606840F4B1
:10109000605060606068A96820F0F00008436060FC
:1010A0002878C00728D06868012810D02168022855
:1010B00010D0890700292EDA616821F0030101436D
:1010C0006160FFF7ADFE804641F288390DE021688E
:1010D0008903EFE78901EDE7FFF7A2FEA0EB080126
:1010E000494502D90320BDE8F0876068696800F0CF
:1010F0000C00B0EB810FEFD1306800F00700B84270
:101100000BD9306820F0070038433060306800F0B9
:101110000700B84201D00120E5E72878400705D54F
:101120006068E96820F4E0600843606028780007A0
:1011300006D56068296920F4605040EAC10060600B
:1011400000F038F86168084AC1F30311515CC840E7
:101150000649086006480068FFF782FE0020C2E7E3
:10116000002002400010024094330008B400002028
:10117000AC0000200448054900684968044AC1F3EE
:101180000221515CC8407047B400002000100240AA
:10119000A43300080448054900684968044AC1F3BB
:1011A000C221515CC8407047B400002000100240CA
:1011B000A433000812A185B00FC98DE80F0014A058
:1011C000144A006804905168134801F00C03042B82
:1011D00010D0082B0ED1C1F38343C9031DF80300BF
:1011E0000AD5516804AAC1F34041515C0A4A5043F0
:1011F000B0FBF1F005B0704708494843FAE700003A
:1012000002030405060708090A0B0C0D0E0F101047
:10121000010200000010024000127A0000093D00A7
:101220002DE9F84F040070D02078C04DC00749D098
:101230006868C0F38100012807D06868C0F38100A6
:10124000022809D16868C00306D52868800339D50B
:1012500060680028E7D035E06068B0F5803F0BD0CB
:1012600010B1B0F5A02F11D0286820F4803028608C
:10127000286820F4802002E0286840F4803028604C
:10128000606890B1FFF7CCFD06460AE0286840F49C
:1012900080202860F0E700BFFFF7C2FD801B6428B4
:1012A00073D828688003F7D50CE0FFF7B9FD064630
:1012B00005E000BFFFF7B4FD801B6428F0D8286864
:1012C0008003F7D420789A4E80074FF001094FF041
:1012D000000839D5686810F00C0F07D06868C0F3B3
:1012E0008100022809D16868C00306D428688007F5
:1012F00014D52069012808D110E02069B0B1C6F8E2
:101300000090FFF78DFD074605E00AE1FFF788FD35
:10131000C01B0228C4D828688007F7D528686169EF
:1013200020F0F80040EAC10028600DE0C6F8008017
:10133000FFF776FD074604E0FFF772FDC01B0228A9
:1013400023D828688007F7D4207800072CD579485F
:10135000A169D9B1C0F80090FFF762FD074604E02B
:10136000FFF75EFDC01B02280FD8686A8007F7D51B
:1013700071484FF4FA510068B0FBF1F0009000BFE3
:101380000098411E0091FAD20EE080E0C0F8008083
:10139000FFF746FD074604E0FFF742FDC01B0228A9
:1013A00075D8686A8007F7D42078400760D5E86967
:1013B0000027C00008D4E86940F08050E861E8697F
:1013C000012700F0805000905C480168C90513D4E3
:1013D0000168834641F480710160FFF721FD824678
:1013E00006E000BFFFF71CFDA0EB0A0064284ED802
:1013F000DBF80000C005F5D5E06801280AD008B187
:10140000052813D0286A20F001002862286A20F0FD
:10141000040002E0286A40F001002862E06841F21E
:10142000883B98B1FFF7FCFC82460BE0286A40F04D
:1014300004002862EEE700BFFFF7F2FCA0EB0A0110
:1014400059455AD8286A8007F6D50CE0FFF7E8FC22
:10145000824605E0FFF7E4FCA0EB0A0159454CD8B1
:10146000286A8007F6D41FB1E86920F08050E8614F
:10147000E06988B36968C1F38101022944D0022878
:10148000C6F8608004D0FFF7CBFC044638E034E0B7
:10149000FFF7C6FC074604E0FFF7C2FCC01B0228AA
:1014A0002BD828688001F7D4206AB0F5803F05D199
:1014B0006868A16820F4003008436860D4E9080136
:1014C0000843696821F4741108436860C6F86090A5
:1014D000FFF7A6FC044606E025E000BFFFF7A0FCEE
:1014E000001B022809D828688001F7D51BE000BF3F
:1014F000FFF796FC001B022802D90320BDE8F88FF5
:1015000028688001F4D40EE00128F7D06868226AC8
:1015100000F48031914204D1616A00F47010884275
:1015200001D00120EAE70020E8E7000000100240B7
:101530000000424280044242B4000020007000409B
:1015400010B5401EB0F1807F01D3012010BD4FF0D7
:10155000E02460610F21601701F088FC0020A06189
:1015600007202061002010BD7047704710B590F82B
:101570003C20012A22D0012280F83C20CA688C68D5
:1015800022F4407222434C6822F4806222430C68A9
:1015900022F4006222430C6922F4805222434C69F7
:1015A00022F400522243C969002322F480420A43F4
:1015B00001684A6480F83C30002010BD022010BD54
:1015C00070B590F83C20012A26D0012480F83C40D8
:1015D000022280F83D2003685A689D6822F0700658
:1015E0000A6832435A600D4B02689A4208D0B2F141
:1015F000804F05D00A4B9A4202D00A4B9A4204D13E
:10160000496825F080031943916080F83D4000212E
:1016100080F83C10084670BD022070BD002C0140CF
:10162000000400400008004010B5040003D094F806
:101630003D0010B107E0012010BD002084F83C00FF
:10164000204600F01FF8022084F83D00211D20688C
:1016500001F0B6F9012084F8460084F83E0084F8D1
:101660003F0084F8400084F8410084F8420084F888
:10167000430084F8440084F8450084F83D000020CD
:1016800010BD000008B500680B49884212D10B4814
:10169000C16941F00201C161C069002200F002008D
:1016A000009011461D20FFF727FCBDE808401D20D3
:1016B000FFF714BC08BD0000000400400010024009
:1016C00070B5044690F83C00012817D0012584F835
:1016D0003C50022084F83D002068826822F07702A6
:1016E00022F47F4282600868502830D00DDC202828
:1016F0004DD005DC98B310283BD148E0022070BDE6
:10170000302844D0402834D139E0602828D07028CF
:1017100006D0B0F5805F2CD0B0F5005F29D10AE08B
:10172000CB68D1E90121206801F08DF9206881683A
:1017300041F0770109E0CB68D1E90121206801F08F
:1017400082F92068816841F48041816011E0CA68B3
:101750004968206801F02CFA5021206807E016E063
:10176000CA684968206801F034FA6021206801F0F5
:1017700074F984F83D50002084F83C0070BDCA68BC
:101780004968206801F014FA40212068EFE72268D8
:1017900001461046EBE72DE9F0410D46040003D069
:1017A00094F83D0018B108E00120BDE8F081002068
:1017B00084F83C00204600F041F8022084F83D0007
:1017C0002068816844F2070291438160211D2068EE
:1017D00001F0F6F8226890689169166A2B68AF6983
:1017E000034340F20330814341EA0721A868EF69CF
:1017F00008434FF6FC418843E96840EA072001436B
:1018000028692F6A000140EA0730084369686D695A
:1018100026F0220646EA0515294393602268906166
:1018200054F8460B0162012004F81F09E075207688
:10183000E0762077A0750020B7E7000000B585B0FE
:10184000002100910191029103910068B0F1804F55
:1018500016D10C48C16941F00101C161C16901F0B3
:1018600001010491816941F0040181618069694647
:1018700000F004000490032000900348FFF7CEF925
:1018800005B000BD001002400008014070B590F89E
:101890003E60044690F83F5090F8423090F8432064
:1018A000022021B104290ED0012E1BD114E0012EFB
:1018B00018D1012B16D184F83E0084F84200012291
:1018C0000021206820E0012D0CD1012A0AD184F8E2
:1018D0003F0084F8430014E0012D03D1012B01D116
:1018E000012A01D0012070BD84F83E0084F83F0039
:1018F00084F8420084F8430001220021206801F0AE
:1019000095F801220421206801F090F82068016810
:1019100041F001010160002070BD704770B50446C0
:10192000006801694FF00005C943890715D4C168F3
:10193000C943890711D4E91E01610120207720687D
:1019400080698007204602D0FFF7E7FF04E000F03F
:10195000BFF8204600F062F9257720680169C94385
:10196000490717D4C168C943490713D46FF004016C
:101970000161022020772068806910F4407F2046B2
:1019800002D0FFF7CAFF04E000F0A2F8204600F002
:1019900045F9257720680169C943090716D4C1684C
:1019A000C943090712D46FF00801016104202077B0
:1019B0002068C0698007204602D0FFF7AEFF04E030
:1019C00000F086F8204600F029F9257720680169A3
:1019D000C943C90617D4C168C943C90613D46FF0F7
:1019E00010010161082020772068C06910F4407F51
:1019F000204602D0FFF791FF04E000F069F820468E
:101A000000F00CF9257720680169C943C90708D19E
:101A1000C168C943C90704D1891E0161204600F08D
:101A20004DF920680169C943090609D4C168C94351
:101A3000090605D46FF0800101612046FFF794FD8F
:101A400020680169C943490609D4C168C9434906E8
:101A500005D46FF040010161204600F030F92068A4
:101A60000169C94389060BD4C168C943890607D4F3
:101A70006FF0200101612046BDE87040FFF775BDA1
:101A800070BD000000B585B0002100910191029168
:101A9000039100680B49884212D10B48816941F0DB
:101AA000040181618069694600F0040004904FF4EC
:101AB000807000900220019003900448FFF7AEF878
:101AC00005B000BD002C014000100240000801409C
:101AD000704770B5044690F83C000D4601280AD0C6
:101AE000012084F83C0042B1042A18D0082A2AD0E8
:101AF0000C2A4DD139E0022070BD206800F0B6FFFD
:101B00002068816941F0080181612068816921F0C4
:101B100004018161206881692A69114311E020680C
:101B200000F0CCFF2068816941F400618161206888
:101B3000816921F480618161206881692A6941EAB3
:101B40000221816124E0206800F0E4FF2068C1697F
:101B500041F00801C1612068C16921F00401C1613F
:101B60002068C1692A69114311E0206800F0FEFF76
:101B70002068C16941F40061C1612068C16921F434
:101B80008061C1612068C1692A6941EA0221C1619D
:101B9000002084F83C0070BD10B5040003D094F818
:101BA0003D0010B107E0012010BD002084F83C008A
:101BB000204600F01FF8022084F83D00211D206817
:101BC00000F0FEFE012084F8460084F83E0084F810
:101BD0003F0084F8400084F8410084F8420084F813
:101BE000430084F8440084F8450084F83D00002058
:101BF00010BD000008B500680649884208D10648B3
:101C0000816941F400618161806900F400600090A5
:101C100008BD0000002C0140001002407047000089
:101C200010B50446022249B104290ED0082913D068
:101C300094F84100012816D0012010BD94F83E0010
:101C40000128F9D184F83E200FE094F83F000128E4
:101C5000F2D184F83F2008E094F840000128EBD14D
:101C600084F8402001E084F841200122206800F03F
:101C7000DDFE0F492068884203D1426C42F40042E5
:101C800042642068884208D0B0F1804F05D00949ED
:101C9000884202D00849884204D1816801F00701D6
:101CA000062903D0016841F001010160002010BD48
:101CB000002C0140000400400008004070477047BD
:101CC00070477047F8B5026804461068D1685369D8
:101CD00010F00F0F4FF0000553D003F0010601F490
:101CE000907737435FD0C20705D0CA0503D5226C71
:101CF00042F001022264420705D5DA0703D0226CC4
:101D000042F002022264820705D5DA0703D0226C72
:101D100042F004022264020707D501F02002324398
:101D200003D0226C42F008022264226C002A34D0D4
:101D3000800604D5880602D5204600F07CFF206886
:101D40004069216CC0F38010090700D430B32046ED
:101D500000F059FF2068416949061BD5416921F00F
:101D600040014161A06BA8B158494163A06BFEF7E7
:101D7000F7FE002811D0A06B416B01B0BDE8F04028
:101D8000084783060FD58B060DD52046BDE8F840E1
:101D900000F051BF2046FFF794FFF8BD2046FFF743
:101DA00090FF2564F8BD266B2023012E52D1C60674
:101DB00050D5CE064ED51068506800905069400648
:101DC0002AD5A16B086840680004000CEAD0A68DF3
:101DD0008642E7D9E0858869202818D0D06820F4A9
:101DE0008070D0602068416921F001014161206864
:101DF000416921F04001416184F83E30256320684B
:101E0000C16821F01001C160A06BFEF785FEA08DB6
:101E1000E18D401A81B219E0A08DE18D401A81B2A6
:101E2000E08D0028BED00029BCD0D06820F490708E
:101E3000D0602068426922F00102426184F83E309D
:101E400025632068C26822F01002C2602046FFF7B6
:101E500037FFF8BD05062BD50D0629D594F83D00B2
:101E60002128F6D1A068B0F5805F01D12069B0B11A
:101E7000206A411C2162216800784860E08C401E85
:101E80000004000CE084E4D12068C16821F08001E6
:101E9000C1602068C16841F04001C160F8BD206A9E
:101EA0000088C0F308005060206A801C2062E5E7CB
:101EB0004006F3D54806F1D5D168204621F040010F
:101EC000D16084F83D3000F00CF9F8BDF72B000824
:101ED00070B5040004D094F83D00002510B106E070
:101EE000012070BD84F83C50204600F023F82420E7
:101EF00084F83D002068C16821F40051C16020468B
:101F000000F0F4FE2068016921F49041016120682D
:101F1000416921F02A0141612068C16841F4005102
:101F2000C1602564202084F83D0084F83E00002034
:101F300070BD000030B585B0002400940194029477
:101F4000039400681B49884232D11B48816941F4DF
:101F500080418161816901F480410491816941F08E
:101F6000080181618069154D00F00800049040204F
:101F70000090022001900320039069462846FEF756
:101F80004DFE8020CDE90004694628460294FEF704
:101F900045FE0B48416841F0E06141F004014160B9
:101FA000002201212520FEF7A7FF2520FEF796FF3E
:101FB00005B030BD0038014000100240000C014067
:101FC0000000014090F83E30202B0ED159B152B1A3
:101FD00090F83C30012B08D0012380F83C300023DE
:101FE000036300F0DFBE012070470220704700004D
:101FF0000C4900680968884212D10B480B4B427BA0
:10200000032A04D001785A54491C017002E05A7422
:1020100001218170044901220D310248FFF7D2BF2E
:1020200070470000E401002000000020B8000020FC
:102030002DE9F843044690F83D001F4616460D462C
:1020400020284CD1C5B1BEB194F83C00012846D03F
:10205000012084F83C004FF00008C4F840802120A3
:1020600084F83D00FEF7DCFEA6848146E684A06885
:10207000B0F5805F03D004E00120BDE8F88320695B
:1020800028B12E465FF0000584F83C800EE0002663
:10209000FAE78021204600F0A0FEA0B9AEB116F804
:1020A000010B21684860E08C401EE084E08C4B46C8
:1020B0004FF0000200970028EBD14FF0400120467E
:1020C00000F08BFE30B10320D7E735F8020BC0F3E8
:1020D0000800E6E7202084F83D000020CDE702203C
:1020E000CBE77047FEE7000010B50C4C00202062E3
:1020F0006062206160610A48FEF7F0FB82B2A4F1E1
:10210000800008A14282A030FEF76CF8D4E90801F3
:10211000C4E90401BDE8104000F090B9800000203F
:10212000DC00002025640A003EB50024114800941C
:10213000019402940E4984600160047304750125C2
:1021400005614FF460214460C161FEF7CBFB08B12B
:10215000FEF743FB0220CDE90005694602940548DD
:10216000FEF73EFB002801D0FEF737FB3EBD000026
:1021700000240140DC0000202DE9F04385B000245C
:1021800025480094019402940394816941F0200150
:102190008161816901F020010491816941F00401AC
:1021A0008161816901F004010491816941F00801B4
:1021B00081618069DFF8648000F008004FF4805688
:1021C0000490002231464046FEF725FEDFF850908D
:1021D0004FF4C067002239464846FEF71CFE202017
:1021E00001258DE8310069464846FEF717FDCDE927
:1021F00000650226CDE9024669464046FEF70EFD1F
:1022000000970396CDE9015469464846FEF706FD5E
:1022100005B0BDE8F083000000100240000C014052
:102220000008014010B592B000240F941C2108A8AA
:102230001094FEF768F820216846FEF764F82048FD
:102240001E4901604F21C0E9011440F2E731C0E9A5
:10225000031444618461FFF79FFC08B1FEF7BDFAE7
:102260000F940FA916481094FFF7AAF908B1FEF7CA
:10227000B4FA6020CDE908040A940B940C940D94F0
:10228000002208A90E480E94FFF723FC08B1FEF7C0
:10229000A4FA00944FF40050CDE904400294019454
:1022A0000394694606480794FFF760F908B1FEF702
:1022B00094FA0348FFF7E6FB12B010BD002C014072
:1022C0000C01002010B58CB024216846FEF71BF8E5
:1022D0000024154809944FF080410A94C0E9001485
:1022E0004FF6FF71C0E90241046184610120CDE92C
:1022F0000004CDE902040494CDE905400794694641
:1023000009480894FFF747FA08B1FEF766FA0994FE
:1023100009A905480A94FFF753F9002801D0FEF7F0
:102320005CFA0CB010BD00005401002010B586B05E
:1023300000241748009401940294039404941349D0
:102340000594016041F63F71C0E901143121C0E9F3
:1023500003148461FFF768F908B1FEF73EFA4FF401
:102360008050009069460A48FFF7AAF908B1FEF7C5
:1023700034FA049404A906480594FFF721F90028CB
:1023800001D0FEF72AFA06B010BD0000000400409C
:102390009C0100200C4810B50A4901604FF4E1315E
:1023A0004160002181600C22C160C0E9041281619A
:1023B000C161FFF78DFD002803D0BDE81040FEF796
:1023C0000CBA10BD00380140E4010020FEE7FEE732
:1023D0007047000030B517490546164C007809785B
:1023E000E41E884222D1211D687C097888421DD1D3
:1023F00004220121284600F0FBFD0068A0660322AC
:102400000521284600F0F4FD0188A4F81D1080780D
:10241000E07708221146284600F0EAFD04F1800129
:1024200002680A6140684861012000E00020A07154
:10243000C0B230BD03000020704700002DE9F0411C
:10244000FE4C002604F128016670042201F14000D0
:1024500000F064FAFA4D04F1800738B16078E27850
:102460002A54401CC0B22918A26E33E2F349042258
:102470002C3101F13C0000F051FA0028EED1EF4977
:102480000422343101F1340000F048FA0028E5D18B
:10249000EA490422303101F1380000F03FFA002807
:1024A000DCD1E64904223C3101F12C0000F036FA7F
:1024B0000028D3D1E1490422403101F1280000F085
:1024C0002DFA98BBDD490422443101F1240000F0CB
:1024D00025FA4FF0010850B36078E2782A54401C86
:1024E000C0B22918A26E0A60001DC0B22918B4F843
:1024F0001D200A80E27F8A70C01CC0B229183A6988
:102500000A607A6908304A60C0B262792A54401C75
:10251000C0B260702179295494F82010C84800F0A6
:1025200097FC84F807802672BDE8F08108E0FFE799
:10253000C2490422483101F1200000F0EFF930B324
:102540006078E2782A54401CC0B22918A26E0A6052
:10255000001DC0B22918B4F81D200A80E27F8A70DD
:10256000C01CC0B229183A690A607A6908304A600A
:10257000C0B262792A54401CC0B2607021792954DB
:1025800094F82010AE4800F063FCE671CBE7AB494D
:1025900004224C3101F11C0000F0C0F940B3607816
:1025A000E2782A54401CC0B22918A26E0A60001DAD
:1025B000C0B22918B4F81D200A80E27F8A70C01CBE
:1025C000C0B229183A690A607A6908304A60C0B214
:1025D00062792A54401CC0B260702179295494F861
:1025E0002010974800F034FC84F80880E6719BE7DF
:1025F00092490422503101F1180000F08FF938B3EC
:102600006078E2782A54401CC0B22918A26E0A6091
:10261000001DC0B22918B4F81D200A80E27F8A701C
:10262000C01CC0B229183A690A607A6908304A6049
:10263000C0B262792A54401CC0B26070217929541A
:1026400094F820107E4800F003FC84F809806BE7C2
:102650007A490422543101F1140000F05FF930B3DB
:102660006078E2782A54401CC0B22918A26E0A6031
:10267000001DC0B22918B4F81D200A80E27F8A70BC
:10268000C01CC0B229183A690A607A6908304A60E9
:10269000C0B262792A54401CC0B2607021792954BA
:1026A00094F82010664800F0D3FB66723CE763495B
:1026B0000422583101F1100000F030F990B3607835
:1026C000E2782A54401CC0B22918A26E0A60001D8C
:1026D000C0B22918B4F81D200A80E27F8A70C01C9D
:1026E000C0B229183A690A607A6908304A60C0B2F3
:1026F00062792A54401CC0B260702179295494F840
:1027000020104F4800F0A4FB6420FEF775FA4B49F7
:102710000322143101F1090000F000F918B184F826
:102720000B8001E709E0454903221731881D00F0BD
:10273000F5F800288BD0E672F6E6404904225C31B9
:1027400001F10C0000F0EAF828B36078E2782A542E
:10275000401CC0B22918A26E0A60001DC0B2291820
:10276000B4F81D200A80E27F8A70C01CC0B229180C
:102770003A690A607A6908304A60C0B262792A54BC
:10278000401CC0B260702179295494F820102C4864
:1027900000F05EFBCFE729490422603101F1080017
:1027A00000F0BCF8A0B36078E2782A54401CC0B2B4
:1027B0002918A26E0A60001DC0B22918B4F81D20A5
:1027C0000A80E27F8A70C01CC0B229183A690A6088
:1027D0007A6908304A60C0B262792A54401CC0B29B
:1027E00060702179295494F82010154800F030FBCE
:1027F000124903221A31C81C00F090F8002890D02A
:102800000E4884F80C809030FDF770FD20748BE644
:10281000FFE70A4904226431081D00F07FF830B355
:102820006078E2782A54401CC0B22918A26E0A606F
:10283000001DC0B22918B4F81D2003E000000020DC
:10284000CA0000200A80E27F8A70C01CC0B229182A
:102850003A690A607A6908304A60C0B262792A54DB
:10286000401CC0B260702179295426734BE029497D
:10287000042201F1440000F051F800286078E27869
:1028800005EB000100F101000A70C0B205EB000188
:102890001FD0A26E0A60001DC0B22918B4F81D2016
:1028A0000A80E27F8A70C01CC0B229183A690A60A7
:1028B0007A6908304A60C0B262792A54401CC0B2BA
:1028C000607021792954E67126726672E672267369
:1028D0002AE6A26B0A60001DC0B22918B4F81D20B8
:1028E0000A80E27F8A70C01CC0B229183A690A6067
:1028F0007A6908304A60C0B262792A54401CC0B27A
:1029000060702179295494F82010BDE8F041024804
:1029100000F09EBA24000020CA00002030B5002339
:1029200006E0C45CCD5CAC4201D0002030BD5B1C35
:102930009342F6DB012030BDFEF778BA30B593B094
:1029400028216846FDF7DFFC14210AA8FDF7DBFC0F
:10295000002501210F9510950804CDE9001011956F
:1029600009951295029502240491CDE90740684625
:10297000FEF756FC08B172B6FEE70F20CDE90A0457
:1029800080200C90C000CDE90D0500210AA8FEF7BB
:102990005BFB08B172B6FEE74FF4004011900F9454
:1029A0000FA8FEF7DBFA002801D072B6FEE713B0DD
:1029B00030BD70470148FEF7B1BF00009C01002008
:1029C000F0B50268164B174C174D4FF080479842F0
:1029D00005D0B84203D0A04201D0A84203D122F0D2
:1029E00070064A683243984205D0B84203D0A042EC
:1029F00001D0A84203D122F44074CA6822434C6932
:102A000022F08002224302608A68C2620A688262FF
:102A1000984201D10969016301214161F0BD0000C3
:102A2000002C0140000400400008004010B501F0F7
:102A30001F030121046A99408C430462016A9A4091
:102A40001143016210BD10B5846842EA032224F4E8
:102A50007F440A432243826010BD826822F07002E4
:102A60000A4342F0070181607047000030B5026AF6
:102A700022F001020262026A4368846924F073054D
:102A80000C682C4322F002058A682A430A4DA842AA
:102A90000BD122F00805CA6823F440732A434D691C
:102AA00022F004021D438B692B4343608461496813
:102AB0004163026230BD0000002C014030B5026A63
:102AC00022F010020262026A436884690D6824F4ED
:102AD000E64444EA05248D6822F0200242EA051209
:102AE0000B4DA8420ED1CD6822F0800242EA0512B9
:102AF0004D6923F4406343EA85038D6922F0400267
:102B000043EA85034360846149688163026230BDA2
:102B1000002C014030B5026A22F480720262036A1E
:102B20004268C46923F4007324F073050C682C43D5
:102B30008D6843EA05230C4DA8420ED1CD6823F4DD
:102B4000006343EA05234D6922F4405242EA05122C
:102B50008D6923F4806342EA05124260C4614968CA
:102B6000C163036230BD0000002C014030B5026A31
:102B700022F480520262046A4268C3690D6823F439
:102B8000E64343EA05238D6824F4005444EA0534FF
:102B9000064DA84204D14D6922F4804242EA8512D2
:102BA0004260C36149680164046230BD002C014089
:102BB00010B5036A046A24F001040462846924F0F5
:102BC000F00444EA021423F00A020A438461026218
:102BD00010BD10B5036A23F0100303628369046A11
:102BE00023F4704343EA023224F0A00343EA0111C4
:102BF0008261016210BD10B5406A0021C185C184A7
:102C0000FFF75FF810BD0168CA6822F49072CA60CD
:102C100001684A6922F001024A61016B012904D16D
:102C20000168CA6822F01002CA60202180F83E10B4
:102C300000210163704708B590F83E10222901D0A9
:102C4000022008BD82684FF480539A4201D1016985
:102C500021B1816A9A421BD04AB10AE00268816AB6
:102C60005268C2F308020A80816A891C08E002697E
:102C700072B10268526802F07F020A70816A491CD0
:102C80008162C18D491E0904090CC18503D019E078
:102C900002685268F1E70168CA6822F02002CA603F
:102CA0000168CA6822F48072CA6001684A6922F029
:102CB00001024A61202180F83E10016B012903D0F6
:102CC000FFF796F9002008BD002101630168CA687A
:102CD00022F01002CA6001680A68D20602D50A68AA
:102CE00049680091818DFEF7EBFFEBE770B5044674
:102CF00000680169E26821F44051114301612169D2
:102D0000A0680843616908432168CA6841F20C63FE
:102D10009A430243CA6020684169A26921F4407164
:102D2000114341611E492068884202D1FEF732FA00
:102D300001E0FEF71FFA00EBC00101EB0012606832
:102D400064218000B2FBF0F3B3FBF1F36FF01806DF
:102D50007343B2FBF0F5B2FBF0F605EB83053223CB
:102D600003EB0515B5FBF1F5B6FBF1F605F0F00543
:102D700005EB0615B2FBF0F6B2FBF0F0B0FBF1F09C
:102D80006FF01802504306EB800003EB0010B0FB1D
:102D9000F1F0216800F00F002844886070BD000049
:102DA0000038014081628285C285002101642222AF
:102DB00080F83E2080F83C100168CA6842F48072B6
:102DC000CA6001684A6942F001024A610068C1684C
:102DD00041F02001C160002070472DE9F041984684
:102DE00017460E460446069D1DE0681C1BD02DB1FB
:102DF000FEF716F8A0EB0800A84214D92068C168B5
:102E000021F4D071C1602068416921F00101416164
:102E1000202084F83D0084F83E00002084F83C0027
:102E20000320BDE8F0812068006836EA000004D085
:102E30000020B842D9D00020F3E70120F9E70000D4
:102E40000148FEF73FBF0000E4010020FEE700005C
:102E50000A4610B501464FF47A730348FFF7E8F8C5
:102E6000002800D0012010BDE40100200907090E50
:102E7000002804DB00F1E02080F80014704700F027
:102E80000F0000F1E02080F8141D7047FDF7D6FF19
:102E9000FFF754FDFFF770F9FFF77CFAFFF744F9ED
:102EA000FFF7C0F9FFF70EFAFFF740FA0122454994
:102EB0004548FFF787F84548FDF7CEFD0021444817
:102EC000FEF7AEFE3C214348FEF7E0FC3D4C424F8E
:102ED0000025DFF8FC800D3CDFF800A14FF4805B9B
:102EE0004FF06409FE04A07830B194F820103C48FB
:102EF000FFF770FAA5702570A07910B1FFF79EFA60
:102F0000A571E07908B101220FE0207A40B90BE009
:102F100059463448FDF777FF4FF4FA70FDF76CFE21
:102F2000A0780028F4D004E0002259462D48FDF78F
:102F300072FF607A08B1FDF715FCE07A08B1FFF77F
:102F4000D3F8207B28B3012251023846FDF763FFF6
:102F500000224FF480613846FDF75DFFDAF800008B
:102F6000A067217C414391FBF9F06067D8F800101D
:102F70004863706A216F401AE066716A216700F049
:102F800025F9194900F03AF9184900F05DF8E067B1
:102F9000A9E72574DAF80000A06795FBF9F06067EF
:102FA000D8F80010486300224FF400713846FDF74E
:102FB00032FF00224FF480613846FDF72CFF756226
:102FC000256790E70D000020E4010020DC000020D0
:102FD0000C01002054010020000801402C2C01406D
:102FE000B8000020000C014000606A47006EBE4738
:102FF00070B5094B00240A449C61DC61064C0B4609
:10300000183403E0455CCE1A491CA5559142F9DB02
:103010000148183070BD00008000002010B5002964
:103020000AD00878002807D005487844FDF7E6FA6A
:10303000002801D0002010BD0248784410BD0000D7
:10304000A20300009A0300004FF47F0C1CEAD01288
:103050001EBF1CEAD11392EA0C0F93EA0C0F00F08A
:10306000858090EA010F48BF42F4807240F4000C62
:1030700041F400002CF07F4120F07F4000B58142F8
:10308000A2EB03020FF2081CACEB504EC0F10000A3
:103090009EF800E04FEA4E0E00FB0EFC38BF4900E0
:1030A0004FEA2C1C02F5FA020CFB0EF34FEACE1E7F
:1030B0004FEA112C4FEAC1210EEB635E42EB224234
:1030C0000EFB0CFC4FEA1C5300FB03114FEA112CC2
:1030D0004FEA01310EFB0CFC4FEADC4C00FB0C11FB
:1030E000C14228BF09184CEB03335DF804EB10EB29
:1030F000410143EBC250B2F57C0F38BF704729D570
:1031000012F0F00F1CBF00F1C04000F0004070470B
:10311000008182838485868788898B8C8D8E8F91B0
:103120009293959697999A9C9D9FA0A2A3A5A7A8D4
:10313000AAACAEB0B2B3B5B7B9BCBEC0C2C5C7C900
:10314000CCCED1D4D7D9DCDFE2E6E9ECF0F3F7FA64
:10315000FE0000004FEA400C0CF1807CBCF17E4F79
:1031600028BF7047B0F1C04000F00FB990EA010FDE
:103170000CEAD11348BF42F48072624538BF634500
:1031800007D213F47F0F16D080EA010000F0004050
:10319000704710B500F0B3F8097EFC3E00F005B8AA
:1031A00080EA010000F00040704780EA010000F072
:1031B000004000F0EAB812F47F0F04BF02487047E5
:1031C00080EA010000F0E1B80000C07F10F000418B
:1031D00048BF4042B0FA80F310FA03F2C3F19D03F6
:1031E0000BD051EAC35101EB1220530638BF704790
:1031F00000F1010008BF20F0010070474FF47F0C80
:103200001CEAD0121EBF1CEAD11392EA0C0F93EAFB
:103210000C0F00F0478090EA010F48BF42F4807223
:103220004FF0004C4CEA00204CEA012102EB030273
:10323000A0FB0113A2F50002002918BF43F001030F
:103240005B0028BF4FEA330342EB22425FEA132CB4
:103250004CEBC2502EBFBCEB436FB2F57C0F7047F6
:103260004FEA036CBCF1004F08BF20F00100B2F53B
:103270007C0F38BF70470BD582F0FF0212F5803FFC
:10328000C8BF704700F1C040D8BF00F00040704791
:1032900000F5000C5FEA4C0C48BF7047B0F1C0402D
:1032A00000F073B890EA010F0CEAD11348BF42F462
:1032B0008072624538BF634504D280EA010000F0A5
:1032C0000040704710B500F01AF800BF8900013EB9
:1032D00000F007B800F009B85FEA410C5FEA1C6C27
:1032E00008D080EA010000F050B85FEA400C5FEAC5
:1032F0001C6CF6D14FF00040A0F5800070470EF135
:10330000020E2EF0030E5EF8044B244204D44FEA62
:103310004102B2F17F4F11D84FEA4003B3F17F4F22
:103320000CD80ED14FEAD07CB2F17F4F0CEB4C0C95
:103330000CF1020C08BF4CEBD17C04E04FF0080C00
:1033400001E04FEAD17C0CEB4C0324FA03F404F0C7
:103350000704B4F1040C06D20EEB840CBDE8104057
:103360004CF0010C6047DFE80CF0070802024FF058
:103370000040A0F5800010BD0846420018BFD2F101
:10338000807288BF00F0004010BDFF2141EAD0509C
:10339000C0057047000000000000000001020304A7
:1033A000060708090000000001020304DC340008DD
:1033B00000000020B8000000280100089435000833
:1033C000B8000020D00700004401000810010000F0
:1033D00043000000F8FFFFFF0040404040404040F5
:1033E00040404141414141404040404040404040D8
:1033F000404040404040404040050202020202027C
:1034000002020202020202020220202020202020CA
:1034100020202002020202020202909090909090DE
:10342000101010101010101010101010101010109C
:103430001010101002020202020288888888888810
:1034400008080808080808080808080808080808FC
:103450000808080802020202400000000000000004
:10346000000000000000000000000000000000005C
:10347000000000000000000000000000000000004C
:10348000000000000000000000000000000000003C
:10349000000000000000000000000000000000002C
:1034A000000000000000000000000000000000001C
:1034B000000000000000000000000000000000000C
:1034C00000000000000000000000000000000000FC
:1034D00000000000000000000000000000000002EA
:1034E00003060000000000000000000000000000D3
:1034F00052554E53544F53455400000012000000E3
:10350000434C4F534D4F564C47504F5347535454D1
:103510004756454C4E554C4C654C4544644C4544CF
:10352000624F4E4E624F464662544F476542544E7C
:103530006442544E654C4947644C49476550574D69
:103540006450574D00000000000000000000000023
:1035500000000000000000000000000053696E67DA
:10356000636C69634C6F6E67636C69630000000095
:10357000000000000000000000000000000000004B
:10358000000000000100000010000000000000002A
:043590000024F4001F
:04000005080000ED02
:00000001FF
